:100000000C94B3000C9470020C94D4000C94D400A3
:100010000C94D4000C94E1020C94BC020C94D40017
:100020000C94D4000C94D4000C94D4000C94D40000
:100030000C94D4000C94D4000C94D4000C94D400F0
:100040000C94D4000C94D4000C94D4000C94D400E0
:100050000C94D4000C94D4000C94D4000C94D400D0
:100060000C94D4000C94D4000C94D4000C94D400C0
:100070000C94D4000C94D4000C94D4000C94D400B0
:100080000C94D4000C94D4000C94D4000C94D400A0
:100090000C94D4000C94D4000C94D4000C94D40090
:1000A0000C94D4000C94D4000C94D4000C94D40080
:1000B0000C94D4000C94D4000C94D4000C94D40070
:1000C0000C94D4000C94D4000C94D4000C94D40060
:1000D0000C94D4000C94D4000C94D4000C94D40050
:1000E0000C94D40007634236B79BD8A71A396856D8
:1000F00018AEBAAB558C1D3CB7CC5763BD6DEDFD4A
:10010000753EF6177231BF000000803F0800000006
:10011000BE922449123EABAAAA2ABECDCCCC4C3EFC
:1001200000000080BEABAAAAAA3E00000000BF00EB
:100130000000803F0000000000084178D3BB4387E7
:10014000D1133D190E3CC3BD4282AD2B3E68EC82FB
:1001500076BED98FE1A93E4C80EFFFBE01C4FF7F80
:100160003F000000000011241FBECFEFD1E2DEBF30
:10017000CDBF00E00CBF12E0A0E0B2E0E2EAFDE695
:1001800000E00BBF02C007900D92A030B107D9F775
:1001900012E0A0E0B2E001C01D92A733B107E1F781
:1001A0000E9452090C94CF360C94000086E69EE023
:1001B0000197F1F700004098419880E388B9429A8E
:1001C000EFEFF7E43197F1F700C000004298E6E660
:1001D000FEE03197F1F700004098419888B9429AC3
:1001E000EFEFF7E43197F1F700C000004298E6E640
:1001F000FEE03197F1F700004098419888B9429AA3
:100200008FEF97E40197F1F700C000004298E6E60F
:10021000FEE03197F1F700004098419880E288B9FC
:10022000429A8FEF97E40197F1F700C000004298DF
:10023000089598B19F7098B998B1282F207F922B7C
:1002400098B940984198429AEFEFF7E43197F1F767
:1002500000C00000429898B19F7098B998B18295FB
:10026000807F892B88B940984198429A8FEF97E414
:100270000197F1F700C00000429808950E94D6004F
:1002800086E69EE00197F1F7000088E20E941901DE
:1002900081E00E94190186E00E9419018EE00E940F
:1002A000190180E80E941901089598B19F7098B9CA
:1002B00098B1282F207F922B98B9409A4198429A62
:1002C000EFEFF7E43197F1F700C00000429898B1E2
:1002D0009F7098B998B18295807F892B88B9409A90
:1002E0004198429A8FEF97E40197F1F700C0000020
:1002F0004298089580E80E9419010895CF93DF93F2
:10030000EC018881882331F021960E945501899162
:100310008823D9F7DF91CF910895823079F0833027
:1003200018F48130C9F405C0833069F08430A1F439
:100330000FC0862F81580E9419010895862F81547D
:100340000E9419010895862F8D560E941901089563
:10035000862F8D520E94190108950F931F93CF93FA
:10036000DF938A01E901882311F0662319F40E94C2
:100370007A0102C00E948D01C530D10571F4C80117
:1003800060E177E20E94BB36CB01C09690931902E0
:10039000809318020E94550103C0C430D105B9F4FE
:1003A000C80168EE73E00E94BB36CB0170931D025A
:1003B00060931C026AE070E00E94BB36C096909386
:1003C0003302809332020E94550181E001C080E037
:1003D000C330D10511F08130B1F4C80164E670E09A
:1003E0000E94BB36CB0170931D0260931C026AE031
:1003F00070E00E94BB36C09690932E0280932D022F
:100400000E94550181E0C230D10511F08130B1F474
:100410002AE030E0C801B9010E94BB36CB017093DD
:100420001D0260931C02B9010E94BB36C0969093D6
:100430002B0280932A020E94550181E0C130D10530
:1004400011F0813061F4C8016AE070E00E94BB36AF
:10045000C09690933102809330020E945501C630BD
:10046000D1051CF085E40E945501DF91CF911F91C9
:100470000F9108953B9A43980895259A2D9A0895CF
:10048000269A2E9A0895279A2F9A08958AB18E6FE8
:100490008AB9589A08956C98749A08956D98759AC7
:1004A000089587B1876F87B988B1807888B9089532
:1004B00010BA11BA1092070110920801089581B183
:1004C0008F6081B982B1807F82B9EAE0F1E08081FA
:1004D00088618083EBE0F1E080818861808308950A
:1004E0001F920F920FB60F9211248F939F93AF9389
:1004F000BF938091040290910502A0910602B091F1
:1005000007020196A11DB11D80930402909305027C
:10051000A0930602B0930702BF91AF919F918F9174
:100520000F900FBE0F901F9018950E943A020E94E4
:100530003D020E9440020E9443020E9446020E9425
:1005400051020E9458020E945F020E944B020E94C8
:100550004E020895F894EAE6F0E08081826080839C
:10056000EC9A78940895F894EAE6F0E08081886047
:100570008083ED9A789408951F920F920FB60F9290
:1005800011248F939F93AF93BF9380910802909112
:100590000902A0910A02B0910B020196A11DB11DA2
:1005A0008093080290930902A0930A02B0930B0271
:1005B000BF91AF919F918F910F900FBE0F901F90A1
:1005C00018951F920F920FB60F9211248F939F933D
:1005D000AF93BF9380910C0290910D02A0910E02F7
:1005E000B0910F020196A11DB11D80930C02909352
:1005F0000D02A0930E02B0930F02BF91AF919F9195
:100600008F910F900FBE0F901F901895E1E2F1E0CF
:1006100010828FEF8093250191E090932401109236
:1006200029018093280110922B0180932A011092B6
:100630002D0180932C0189EA809320018BE0808337
:100640000895E1E8F0E010828CEF8093850081E06E
:100650008093840093E0909389008FEF80938800CB
:1006600090938B0080938A0090938D0080938C00F0
:1006700090938700809386008BEA8093800010928D
:1006800082008CE080830895EAE7F0E01082109207
:100690007B0080E280937C0080E880BF86E88083D6
:1006A0000895883018F098E090937B0087708062FE
:1006B00080937C00EAE7F0E0808180648083808121
:1006C00084FFFDCF80917900EAE7F0E090819061AE
:1006D000908310927B000895CF93DF93D82FC62F7D
:1006E000842F0E945103482F809328028D2F6C2F56
:1006F00050E023E030E00E94AD01DF91CF910895FA
:100700000F931F93682F70E080E090E00E946534A3
:100710002FEE39EC43E95FE30E945635B62FA72F41
:10072000382F292F60E070E080E89FE3422F0B2FE5
:100730001A2F232F342FA90198010E94CC332AE9C4
:1007400039EF4EE255E40E94F33420E030E040E21D
:1007500051E40E94F3340E943434882777FD809559
:10076000982F0E9467340E943434862F972F23E0FD
:100770008132920710F080E293E01F910F9108956B
:10078000F894E9E6F0E0808182608083E89A7894CA
:1007900008958093280160932A01089592B1907F73
:1007A0008F70982B92B9089588E00E94CE03089527
:1007B00081E00E94CE03089582E00E94CE03089556
:1007C00084E00E94CE0308958AE00E94CE0308953B
:1007D00085E00E94CE03089580E00E94CE03089534
:1007E0000F931F93CF93BC0180E090E00E9465348B
:1007F00028E431EE42E850E40E94CC330E943934C0
:10080000DC01CB01A0E0B0E01092080210920902D6
:1008100010920A0210920B0210920C0210920D021A
:1008200010920E0210920F02F1E0C0E04091080217
:100830005091090260910A0270910B0200910C0222
:1008400010910D0220910E0230910F02EF2F4817E8
:1008500059076A077B0708F4EC2FEE2349F44F2F62
:10086000081719072A073B0708F44C2F4423F1F215
:100870000E94EC03CF911F910F910895CF93DF93C6
:10088000EC010E94E803CE010E94F003DF91CF91BA
:100890000895CF93DF93EC010E94E403CE010E9400
:1008A000F003DF91CF910895CF93DF93EC010E9485
:1008B000E003CE01880F991F0E94F003DF91CF91D2
:1008C0000895CF93DF93EC010E94DC03CE01880FE3
:1008D000991F0E94F003DF91CF910895CF93DF938A
:1008E000EC010E94D803CE01880F991F0E94F003EB
:1008F000DF91CF910895CF93DF93EC010E94D40351
:10090000CE01880F991F0E94F003DF91CF910895C7
:1009100086E00E94CE03089589E00E94CE030895E8
:10092000F8940E9495020E9444030E9406030E94CC
:10093000AA020E94B3020E94C0030E94210378947D
:1009400008955E985F9808955E9A5F9A08955E98FC
:100950005F9A08955E9A5F9808955C9A5D9A0895EB
:100960000E94A10410920402109205021092060245
:10097000109207028FEF9FE7A4E081509040A040C3
:10098000E1F700C000008091040290910502A0915F
:100990000602B09107028093240290932502A0934F
:1009A0002602B093270208950E94A4041092040224
:1009B0001092050210920602109207028FEF9FE735
:1009C000A4E081509040A040E1F700C00000809179
:1009D000040290910502A0910602B0910702809353
:1009E0001F0290932002A0932102B0932202089547
:1009F0000E94A704109204021092050210920602AF
:100A0000109207028FEF9FE7A4E081509040A04032
:100A1000E1F700C000008091040290910502A091CE
:100A20000602B09107028093110290931202A093E4
:100A30001302B093140208950E94B0048FEF9FEF49
:100A4000ACE281509040A040E1F700C000000E945D
:100A5000D4048FEF9FEFACE281509040A040E1F7CB
:100A600000C000000E94F8048FEF9FEFACE28150BD
:100A70009040A040E1F700C0000040912402509156
:100A80002502609126027091270280911F029091A9
:100A90002002A0912102B091220284179507A60797
:100AA000B707B0F4409124025091250260912602CC
:100AB000709127028091110290911202A09113026D
:100AC000B091140284179507A607B70708F455C01C
:100AD0004091110250911202609113027091140220
:100AE00080911F0290912002A0912102B0912202D8
:100AF00084179507A607B707A8F4409111025091F3
:100B0000120260911302709114028091240290915C
:100B10002502A0912602B091270284179507A60707
:100B2000B70768F140911F025091200260912102A5
:100B3000709122028091240290912502A0912602B8
:100B4000B091270284179507A607B707A8F440912C
:100B50001F02509120026091210270912202809127
:100B6000110290911202A0911302B0911402841705
:100B70009507A607B70728F0089582E5089582E44F
:100B8000089587E4089510928900682F70E080E04E
:100B900090E00E9465342BE734E14EEE5FE30E9463
:100BA000CC3320E030E04CE052E40E9468330E94F5
:100BB000393460938800089510928B00682F70E09C
:100BC00080E090E00E9465342BE734E14EEE5FE375
:100BD0000E94CC3320E030E04CE052E40E946833C5
:100BE0000E94393460938A00089510928D00682F16
:100BF00070E080E090E00E9465342BE734E14EEE37
:100C00005FE30E94CC3320E030E04CE052E40E94ED
:100C100068330E94393460938C00089583E0809398
:100C200089008FEF80938800089583E080938B0084
:100C30008FEF80938A00089583E080938D008FEF7B
:100C400080938C00089583E00E94510380930202F8
:100C500082E00E9451038093010281E00E945103CF
:100C60008093000290910102913268F0209102027B
:100C7000203248F4803238F40E94880482E86AE71F
:100C80000E94C903E0CF20910202213278F0903215
:100C900068F40E94880488E268E70E94C9038FEF25
:100CA00097ED0197F1F700C00000CDCF813278F0C9
:100CB000903268F40E94880488E768E20E94C903C1
:100CC0008FEF97ED0197F1F700C00000BCCF913294
:100CD00038F0213228F0803218F40E94EC03089595
:100CE000903238F4213228F0813218F00E94EC035F
:100CF0000895913208F4A7CF213228F0813218F0FC
:100D00000E94EC030895203208F09DCF813208F450
:100D10009ACF0E94EC0308950E94E80383E00E94AA
:100D200051038093020282E00E94510380930102EA
:100D300081E00E945103809300021092030281E03F
:100D400061E043E00E946C0381E065E042E00E94C4
:100D50006C0381E069E041E00E946C038CE86CE880
:100D60000E94C90386E696E50197F1F7000080919D
:100D70000202803498F20E94EC0380E060E00E945E
:100D8000C90308950E94D40383E00E945103809315
:100D9000020282E00E9451038093010281E00E94DE
:100DA0005103809300021092030281E061E043E06E
:100DB0000E946C0381E065E042E00E946C0381E0E8
:100DC00069E041E00E946C0380E062E80E94C90390
:100DD00086E696E50197F1F70000809101028B30DD
:100DE00098F280E060E00E94C90308950E94E40345
:100DF00083E00E9451038093020282E00E9451032B
:100E00008093010281E00E945103809300021092BE
:100E1000030281E061E043E00E946C0381E065E051
:100E200042E00E946C0381E069E041E00E946C03B3
:100E30008CE86CE80E94C90386E696E50197F1F715
:100E4000000080910002803498F280E060E00E940F
:100E5000C90308950E94D80383E00E945103809340
:100E6000020282E00E9451038093010281E00E940D
:100E70005103809300021092030281E061E043E09D
:100E80000E946C0381E065E042E00E946C0381E017
:100E900069E041E00E946C0382E860E00E94C903BF
:100EA00086E696E50197F1F70000809101028B300C
:100EB00098F280E060E00E94C903089586B18860DE
:100EC00088B9089586B1877F88B90895BC0180E00C
:100ED00090E00E94653425EE30ED4AEA50E40E942D
:100EE000CC330E943934462F572F682F792F109218
:100EF00008021092090210920A0210920B028091CD
:100F0000080290910902A0910A02B0910B024817C1
:100F100059076A077B0798F70E94EC030895CF935F
:100F2000DF93EC010E948804CE010E946607DF91E6
:100F3000CF910895CF93DF93EC010E948C04CE01F2
:100F40000E946607DF91CF91089589E590E00E94A5
:100F50008F070E94EC038FEF9FE7A6E1815090403E
:100F6000A040E1F700C000000E94F60686E966E9AD
:100F70000E94C9038FEF9FE3A2E081509040A04000
:100F8000E1F700C000000E94EC03089589E590E0BD
:100F90000E948F070E94EC038FEF9FE7A6E181502C
:100FA0009040A040E1F700C000000E948C0686E956
:100FB00066E90E94C9038FEF9FE3A2E08150904051
:100FC000A040E1F700C000000E94EC030895CF9319
:100FD0002FEF3FE746E1215030404040E1F700C0AD
:100FE000000082E867E80E94C9038EE190E00E9459
:100FF0009A0783E76EE60E94C90380E00E94C3055A
:101000008FEF9FEFACE281509040A040E1F700C02D
:1010100000008CE80E94F5052FEF3FEF4CE22150D5
:1010200030404040E1F700C0000087E80E94DC0546
:101030008FEF9FEFACE281509040A040E1F700C0FD
:101040000000C0E08C2F0E94C3052FEF3FEF4CE261
:10105000215030404040E1F700C00000C65FC2337D
:1010600089F70E941C0580932C028FEF9FEFACE262
:1010700081509040A040E1F700C000008AE10E944A
:10108000C3052FEF3FEF4CE2215030404040E1F7E5
:1010900000C000000E941C05809310022FEF3FEF5C
:1010A00040EE215030404040E1F700C00000823562
:1010B00059F090912C02923521F082E5809317022D
:1010C00015C0873461F004C090912C02973421F050
:1010D00087E4809317020AC0823429F407C0809104
:1010E0002C02823419F082E480931702CF91089584
:1010F000CF9380E00E94F50588E190E00E948F0781
:1011000080EA68E70E94C9038FEF9FEFACE281504D
:101110009040A040E1F700C000000E94EC03C0E056
:101120008C2F0E94C3058FEF9FEFACE2815090405F
:10113000A040E1F700C00000CB5FCE3189F782E725
:101140000E94F5058FEF9FEFA9E581509040A040E8
:10115000E1F700C0000080E00E94C305CF91089530
:1011600080E00E94C3058FEF9FEFACE2815090407A
:10117000A040E1F700C0000085E50E94DC058FEF8C
:101180009FEFACE281509040A040E1F700C000002A
:1011900080E00E94F5058FEF9FEFACE28150904018
:1011A000A040E1F700C000000895CF9380E00E94C6
:1011B000F5058FEF9FE7A6E181509040A040E1F751
:1011C00000C000008BE90E94DC058FEF9FEFACE2CE
:1011D00081509040A040E1F700C00000C0E08C2F9B
:1011E0000E94C3058FEF9FEFA8E081509040A04080
:1011F000E1F700C00000CB5FCC3389F783E80E94A1
:10120000F5058FEF9FEFA9E581509040A040E1F7F1
:1012100000C0000080E00E94C305CF910895CF93E5
:1012200080E00E94F5058FEF9FEFA9E58150904087
:10123000A040E1F700C0000085EA0E94DC058FEFC6
:101240009FEFACE281509040A040E1F700C0000069
:10125000C0E08C2F0E94C3058FEF9FEFA8E0815064
:101260009040A040E1F700C00000CB5FC53589F792
:1012700087E80E94F5058FEF9FEFA9E58150904028
:10128000A040E1F700C0000080E00E94C3058FEF9E
:101290009FEFACE281509040A040E1F700C0000019
:1012A000CF910895CF930E94AD040E9490040E94B4
:1012B000D6000E943E0180E00E94C3058FEF9FEFA1
:1012C000ACE281509040A040E1F700C0000080E017
:1012D0000E94F5058FEF9FEFACE281509040A04057
:1012E000E1F700C0000087E80E94DC058FEF9FEF68
:1012F000ACE281509040A040E1F700C000008BE0DC
:101300000E94510380932F020E948003AC019093AE
:1013100036028093350282E06EE023E030E00E94E6
:10132000AD018091350290913602A1E0843F9A0789
:1013300010F00C94633385E290E00E948F0780E9FF
:1013400067E80E94C9030E94EC038FEF9FEFACE2B5
:1013500081509040A040E1F700C000000E94F606D6
:1013600086E966E90E94C9038FEF9FE3A2E08150FE
:101370009040A040E1F700C000000E94EC030E94F2
:10138000F60686E966E90E94C9038FEF9FE3A2E0B3
:1013900081509040A040E1F700C000000E94EC03A3
:1013A0000E94E7070E94F60686E966E90E94C903E3
:1013B0008FEF9FE3A2E081509040A040E1F700C092
:1013C00000000E94EC030E94F60686E966E90E948E
:1013D000C9038FEF9FE3A2E081509040A040E1F766
:1013E00000C000000E94EC030E9423068FEF9FEFD5
:1013F000ACE281509040A040E1F700C0000085E1E0
:1014000090E00E948F070E94EC038FEF9FE7A6E118
:1014100081509040A040E1F700C000000E942306E8
:101420008FEF9FEFACE281509040A040E1F700C009
:10143000000080E00E94C30587E80E94DC0580E789
:101440000E94F5050E9423068CE390E00E948F071E
:101450000E94EC038FEF9FEFACE281509040A040E0
:10146000E1F700C000000E94230689EB90E00E9493
:101470008F070E94EC038FEF9FEFACE2815090400A
:10148000A040E1F700C0000086E966E90E94C903B8
:101490008CE590E00E947B048EEB64EB0E94C90314
:1014A0000E94EC038FEF9FE7A6E181509040A0409F
:1014B000E1F700C0000086EB64EB0E94C9038CE3F7
:1014C00090E00E949A0780E00E94C3058BE20E9490
:1014D000DC058FEF9FEFACE281509040A040E1F738
:1014E00000C000000E941C058093340286E490E056
:1014F0000E948F078FEF9FEFA0EE81509040A04099
:10150000E1F700C0000082EB90E00E94490484EB08
:1015100064EB0E94C9030E94EC038EE690E00E94F7
:101520009A07C7E88C2F0E94DC058FEF9FE7A6E1A2
:1015300081509040A040E1F700C00000C550C83283
:1015400089F70E941C0580932302823559F09091FF
:101550003402923521F082E580931A0215C0873457
:1015600061F004C090913402973421F087E48093B5
:101570001A020AC0823441F004C0809134028234DD
:1015800019F082E480931A0280911A029091170256
:10159000891759F490913402891739F090912302F8
:1015A000891719F081E48093290280913402909187
:1015B0001702891759F490911A02891739F09091FE
:1015C00023028917B1F082E48093290280912302DB
:1015D00090911702891769F490913402891749F0A4
:1015E00090911A02891729F083E4809329020C94C0
:1015F000C61B80912902813411F00C9481138091D3
:10160000100290912302891709F048C40E94C6076E
:101610000E9423068FEF9FEFACE281509040A040E4
:10162000E1F700C000000E94A5070E94230686E1A2
:1016300090E00E948F070E94F6068EEB64EB0E94FA
:10164000C9030E94EC038FEF9FEFACE28150904002
:10165000A040E1F700C000000E9423060E94B008ED
:101660000E94C6078FEF9FEFACE281509040A040F0
:10167000E1F700C000000E9423068BE90E94DC0510
:101680008FEF9FEFACE281509040A040E1F700C0A7
:101690000000C0E08C2F0E94C3058FEF9FEFA8E0F1
:1016A00081509040A040E1F700C00000CE5FC833F9
:1016B00089F783E80E94F5058FEF9FEFA9E5815038
:1016C0009040A040E1F700C000000E94C6070E94C1
:1016D000230687E190E00E948F078EEB64EB0E9467
:1016E000C9030E94EC030E9423060E94A5070E94E2
:1016F000B00888E190E00E948F070E94A5070E9431
:10170000230687E190E00E948F070E948C068EEBF3
:1017100064EB0E94C9030E94EC038FEF9FEFACE2E1
:1017200081509040A040E1F700C000000E942306D5
:101730000E948C0686E966E90E94C9038FEF9FE349
:10174000A2E081509040A040E1F700C000000E945C
:10175000EC030E9423068EEB64EB0E94C90381E731
:1017600090E00E948F070E94EC038FEF9FEFACE2A6
:1017700081509040A040E1F700C000008EEB64EB88
:101780000E94C90388E590E00E943E048EEB64EB62
:101790000E94C9030E94EC038FEF9FE7A6E18150EE
:1017A0009040A040E1F700C0000086EB64EB0E948F
:1017B000C90383E590E00E949A070E94EC038FEF33
:1017C0009FE7A6E181509040A040E1F700C00000F3
:1017D0008BE90E94DC058FEF9FEFACE281509040D7
:1017E000A040E1F700C00000C0E08C2F0E94C305BC
:1017F0008FEF9FEFA8E081509040A040E1F700C03C
:101800000000CE5FC83389F783E80E94F5058FEFAB
:101810009FEFA9E581509040A040E1F700C0000093
:1018200088E190E00E948F070E94C6070E9423066D
:101830000E94EC038FEF9FE7A6E181509040A0400B
:10184000E1F700C0000086E966E90E94C90387E26B
:1018500090E00E948F070E94230683E090E00E94A0
:101860008F070E94A5070E94B00888E190E00E94BF
:101870008F070E94C6070E9423068BE90E94DC05A1
:101880008FEF9FEFACE281509040A040E1F700C0A5
:101890000000C0E08C2F0E94C3058FEF9FEFA8E0EF
:1018A00081509040A040E1F700C00000CE5FC833F7
:1018B00089F783E80E94F5058FEF9FEFA9E5815036
:1018C0009040A040E1F700C0000088E190E00E9455
:1018D0008F070E94C6070E9423060E94EC0388E13E
:1018E00090E00E948F070E94C6070E9423060E9474
:1018F000F60686E966E90E94C9038FEF9FE3A2E03E
:1019000081509040A040E1F700C000000E94EC032D
:101910000E94230688E090E00E948F070E94A5079E
:1019200087E80E94DC058FEF9FEFACE2815090408A
:10193000A040E1F700C0000080E00E94F5058FEFB5
:101940009FEFACE281509040A040E1F700C0000062
:10195000C0E08C2F0E94C3058FEF9FEFACE2815057
:101960009040A040E1F700C00000CB5FCD3289F786
:101970008FEF9FEFACE281509040A040E1F700C0B4
:10198000000082E70E94F5050E94F60686E966E9F6
:101990000E94C9038FEF9FE3A2E081509040A040D6
:1019A000E1F700C000000E94EC030E94F60686E901
:1019B00066E90E94C9038FEF9FE3A2E08150904047
:1019C000A040E1F700C000000E94EC030E94230643
:1019D00085E190E00E948F070E94EC038FEF9FE764
:1019E000A6E181509040A040E1F700C000000E94B5
:1019F00023068FEF9FEFACE281509040A040E1F7CB
:101A000000C000000E94B0080E94F60686E966E960
:101A10000E94C9038FEF9FE3A2E081509040A04055
:101A2000E1F700C000000E94EC030E9423068BE94E
:101A30000E94DC058FEF9FEFACE281509040A04008
:101A4000E1F700C00000C0E08C2F0E94C3058FEFBB
:101A50009FEFA8E081509040A040E1F700C0000057
:101A6000CE5FC83389F783E80E94F5058FEF9FEFBB
:101A7000A9E581509040A040E1F700C0000088E156
:101A800090E00E948F070E94C6070E94230687E10C
:101A900090E00E948F078EEB64EB0E94C9030E94C6
:101AA000EC030E9423060E94A5070E94B00888E16B
:101AB00090E00E948F070E94A5078FEF9FEFACE296
:101AC00081509040A040E1F700C000000E94230632
:101AD0008BE90E94DC058FEF9FEFACE281509040D4
:101AE000A040E1F700C00000C0E08C2F0E94C305B9
:101AF0008FEF9FEFA8E081509040A040E1F700C039
:101B00000000CE5FC83389F783E80E94F5058FEFA8
:101B10009FEFA9E581509040A040E1F700C0000090
:101B200088E190E00E948F070E94C6070E9423066A
:101B300088E190E00E948F070E94C6070E94B008CB
:101B400088E190E00E948F070E94A5070E9423066B
:101B500087E190E00E948F070E948C068EEB64EB79
:101B60000E94C9030E94EC038FEF9FEFACE281500B
:101B70009040A040E1F700C000000E9423060E94B0
:101B80008C0686E966E90E94C9038FEF9FE3A2E015
:101B900081509040A040E1F700C000000E94EC039B
:101BA0000E9423068EEB64EB0E94C90381E790E05C
:101BB0000E948F070E94EC038FEF9FEFACE28150F1
:101BC0009040A040E1F700C000008EEB64EB0E9463
:101BD000C90388E590E00E943E048EEB64EB0E940E
:101BE000C9030E94EC038FEF9FE7A6E1815090406C
:101BF000A040E1F700C0000086EB64EB0E94C9033F
:101C000083E590E00E949A070E94EC038FEF9FE724
:101C1000A6E181509040A040E1F700C000008BE9B0
:101C20000E94DC058FEF9FEFACE281509040A04016
:101C3000E1F700C00000C0E08C2F0E94C3058FEFC9
:101C40009FEFA8E081509040A040E1F700C0000065
:101C5000CE5FC83389F783E80E94F5058FEF9FEFC9
:101C6000A9E581509040A040E1F700C0000088E164
:101C700090E00E948F070E94C6070E9423060E94E0
:101C8000EC038FEF9FE7A6E181509040A040E1F781
:101C900000C0000086E966E90E94C90387E290E07F
:101CA0000E948F070E94230683E090E00E948F0726
:101CB0000E94A5070E94B00888E190E00E948F076B
:101CC0000E94C6070E9423068BE90E94DC058FEF65
:101CD0009FEFACE281509040A040E1F700C00000CF
:101CE000C0E08C2F0E94C3058FEF9FEFA8E08150CA
:101CF0009040A040E1F700C00000CE5FC83389F7F4
:101D000083E80E94F5058FEF9FEFA9E58150904091
:101D1000A040E1F700C0000088E190E00E948F073A
:101D20000E94C6070E9423060E94EC0388E190E00F
:101D30000E948F070E94C6070E9423060E94F60693
:101D400086E966E90E94C9038FEF9FE3A2E0815014
:101D50009040A040E1F700C000000E94EC030E9408
:101D6000230688E090E00E948F070E94A50787E87D
:101D70000E94DC058FEF9FEFACE281509040A040C5
:101D8000E1F700C0000080E00E94F5058FEF9FEFB3
:101D9000ACE281509040A040E1F700C00000C0E0FC
:101DA0008C2F0E94C3058FEF9FEFACE281509040D3
:101DB000A040E1F700C00000CB5FCD3289F78FEF84
:101DC0009FEFACE281509040A040E1F700C00000DE
:101DD00082E70E94F5050E94F60686E966E90E9400
:101DE000C9038FEF9FE3A2E081509040A040E1F74C
:101DF00000C000000E94EC030E94F60686E966E936
:101E00000E94C9038FEF9FE3A2E081509040A04061
:101E1000E1F700C000000E94EC030E94230688E165
:101E200090E00E948F070E94A5070E9423060E944F
:101E300088048EEB64EB0E94C9030E9423068EEB9C
:101E400064EB0E94C90381E790E00E948F070E9423
:101E5000EC038FEF9FEFACE281509040A040E1F7A0
:101E600000C000008EEB64EB0E94C90388E590E09F
:101E70000E943E048EEB64EB0E94C9030E94EC03B7
:101E80008FEF9FE7A6E181509040A040E1F700C0AE
:101E900000000E9423060E94B00833C490913402CF
:101EA000891709F02EC40E94A50783E290E00E94E2
:101EB0008F070E94A5070E94230686E190E00E94FA
:101EC0008F070E94F6068EEB64EB0E94C9030E9406
:101ED000EC038FEF9FEFACE281509040A040E1F720
:101EE00000C000000E9423068BE90E94DC058FEFF2
:101EF0009FEFACE281509040A040E1F700C00000AD
:101F0000C0E08C2F0E94C3058FEF9FEFA8E08150A7
:101F10009040A040E1F700C00000CE5FC83389F7D1
:101F200083E80E94F5058FEF9FEFA9E5815090406F
:101F3000A040E1F700C000000E94C6070E942306EF
:101F400087E190E00E948F078EEB64EB0E94C9034B
:101F50000E94EC030E9423060E94A5070E94B0087D
:101F600088E190E00E948F070E94A5070E94230647
:101F700087E190E00E948F070E948C068EEB64EB55
:101F80000E94C9030E94EC038FEF9FEFACE28150E7
:101F90009040A040E1F700C000000E9423060E948C
:101FA0008C0686E966E90E94C9038FEF9FE3A2E0F1
:101FB00081509040A040E1F700C000000E94EC0377
:101FC0000E9423068EEB64EB0E94C90381E790E038
:101FD0000E948F070E94EC038FEF9FEFACE28150CD
:101FE0009040A040E1F700C000008EEB64EB0E943F
:101FF000C90388E590E00E943E048EEB64EB0E94EA
:10200000C9030E94EC038FEF9FE7A6E18150904047
:10201000A040E1F700C0000086EB64EB0E94C9031A
:1020200083E590E00E949A070E94EC038FEF9FE700
:10203000A6E181509040A040E1F700C000008BE98C
:102040000E94DC058FEF9FEFACE281509040A040F2
:10205000E1F700C00000C0E08C2F0E94C3058FEFA5
:102060009FEFA8E081509040A040E1F700C0000041
:10207000CE5FC83389F783E80E94F5058FEF9FEFA5
:10208000A9E581509040A040E1F700C0000088E140
:1020900090E00E948F070E94C6070E9423060E94BC
:1020A000EC038FEF9FE7A6E181509040A040E1F75D
:1020B00000C0000086E966E90E94C90387E290E05B
:1020C0000E948F070E94230683E090E00E948F0702
:1020D0000E94A5070E94B00888E190E00E948F0747
:1020E0000E94C6070E9423068BE90E94DC058FEF41
:1020F0009FEFACE281509040A040E1F700C00000AB
:10210000C0E08C2F0E94C3058FEF9FEFA8E08150A5
:102110009040A040E1F700C00000CE5FC83389F7CF
:1021200083E80E94F5058FEF9FEFA9E5815090406D
:10213000A040E1F700C0000088E190E00E948F0716
:102140000E94C6070E9423060E94EC0388E190E0EB
:102150000E948F070E94C6070E9423060E94F6066F
:1021600086E966E90E94C9038FEF9FE3A2E08150F0
:102170009040A040E1F700C000000E94EC030E94E4
:10218000230688E090E00E948F070E94A50787E859
:102190000E94DC058FEF9FEFACE281509040A040A1
:1021A000E1F700C0000080E00E94F5058FEF9FEF8F
:1021B000ACE281509040A040E1F700C00000C0E0D8
:1021C0008C2F0E94C3058FEF9FEFACE281509040AF
:1021D000A040E1F700C00000CB5FCD3289F78FEF60
:1021E0009FEFACE281509040A040E1F700C00000BA
:1021F00082E70E94F5050E94F60686E966E90E94DC
:10220000C9038FEF9FE3A2E081509040A040E1F727
:1022100000C000000E94EC030E94F60686E966E911
:102220000E94C9038FEF9FE3A2E081509040A0403D
:10223000E1F700C000000E94EC030E94230688E240
:1022400090E00E948F078FEF9FEFACE281509040AB
:10225000A040E1F700C000000E94C6070E942306CC
:1022600080E790E00E948F078FEF9FEFACE28150F4
:102270009040A040E1F700C000000E94A5070E9426
:1022800023060E94B00882E390E00E948F070E941C
:10229000A5070E9423068BE90E94DC058FEF9FEFC4
:1022A000ACE281509040A040E1F700C00000C0E0E7
:1022B0008C2F0E94C3058FEF9FEFA8E081509040C4
:1022C000A040E1F700C00000CE5FC83389F783E883
:1022D0000E94F5058FEF9FEFA9E581509040A04047
:1022E000E1F700C0000088E190E00E948F070E94A3
:1022F000C6070E94230687E190E00E948F078EEBBD
:1023000064EB0E94C9030E94EC030E9423060E9412
:10231000A5070E94B00888E190E00E948F070E9404
:10232000A5078FEF9FEFACE281509040A040E1F70E
:1023300000C000000E9423068BE90E94DC058FEF9D
:102340009FEFACE281509040A040E1F700C0000058
:10235000C0E08C2F0E94C3058FEF9FEFA8E0815053
:102360009040A040E1F700C00000CE5FC83389F77D
:1023700083E80E94F5058FEF9FEFA9E5815090401B
:10238000A040E1F700C0000088E190E00E948F07C4
:102390000E94C6070E94230688E190E00E948F07F2
:1023A0000E94C6070E94B00888E190E00E948F0753
:1023B0000E94A5070E94230687E190E00E948F07F4
:1023C0000E948C068EEB64EB0E94C9030E94EC0312
:1023D0008FEF9FEFACE281509040A040E1F700C04A
:1023E00000000E9423060E948C0686E966E90E948E
:1023F000C9038FEF9FE3A2E081509040A040E1F736
:1024000000C000000E94EC030E9423068EEB64EBE8
:102410000E94C90381E790E00E948F070E94EC03AD
:102420008FEF9FEFACE281509040A040E1F700C0F9
:1024300000008EEB64EB0E94C90388E590E00E94E7
:102440003E048EEB64EB0E94C9030E94EC038FEF05
:102450009FE7A6E181509040A040E1F700C0000056
:1024600086EB64EB0E94C90383E590E00E949A0723
:102470000E94EC038FEF9FE7A6E181509040A040BF
:10248000E1F700C000008BE90E94DC058FEF9FEFB1
:10249000ACE281509040A040E1F700C00000C0E0F5
:1024A0008C2F0E94C3058FEF9FEFA8E081509040D2
:1024B000A040E1F700C00000CE5FC83389F783E891
:1024C0000E94F5058FEF9FEFA9E581509040A04055
:1024D000E1F700C0000088E190E00E948F070E94B1
:1024E000C6070E9423060E94EC038FEF9FE7A6E138
:1024F00081509040A040E1F700C0000086E966E905
:102500000E94C90387E290E00E948F070E94230681
:1025100083E090E00E948F070E94A5070E94B00808
:1025200088E190E00E948F070E94C6070E94230660
:102530008BE90E94DC058FEF9FEFACE28150904069
:10254000A040E1F700C00000C0E08C2F0E94C3054E
:102550008FEF9FEFA8E081509040A040E1F700C0CE
:102560000000CE5FC83389F783E80E94F5058FEF3E
:102570009FEFA9E581509040A040E1F700C0000026
:1025800088E190E00E948F070E94C6070E94230600
:102590000E94EC0388E190E00E948F070E94C6072A
:1025A0000E9423060E94F60686E966E90E94C90396
:1025B0008FEF9FE3A2E081509040A040E1F700C080
:1025C00000000E94EC030E94230688E090E00E9435
:1025D0008F070E94A50787E80E94DC058FEF9FEF19
:1025E000ACE281509040A040E1F700C0000080E0E4
:1025F0000E94F5058FEF9FEFACE281509040A04024
:10260000E1F700C00000C0E08C2F0E94C3058FEFEF
:102610009FEFACE281509040A040E1F700C0000085
:10262000CB5FCD3289F78FEF9FEFACE281509040C6
:10263000A040E1F700C0000082E70E94F5050E947B
:10264000F60686E966E90E94C9038FEF9FE3A2E0E0
:1026500081509040A040E1F700C000000E94EC03D0
:102660000E94F60686E966E90E94C9038FEF9FE3A0
:10267000A2E081509040A040E1F700C000000E941D
:10268000EC030E94230688E190E00E948F070E94DD
:10269000A5070E9423060E9488048EEB64EB0E942B
:1026A000C9030E9423068EEB64EB0E94C90381E7F5
:1026B00090E00E948F070E94EC038FEF9FEFACE247
:1026C00081509040A040E1F700C000008EEB64EB29
:1026D0000E94C90388E590E00E943E048EEB64EB03
:1026E0000E94C9030E94EC038FEF9FE7A6E181508F
:1026F0009040A040E1F700C000000E9423060E9425
:10270000B00880912902823411F00C94C61B80918C
:10271000100290912302981709F020C40E94C60766
:102720000E9423068FEF9FEFACE281509040A040C3
:10273000E1F700C000000E94A5070E94230686E181
:1027400090E00E948F070E94F6068EEB64EB0E94D9
:10275000C9030E94EC038FEF9FEFACE281509040E1
:10276000A040E1F700C000000E9423060E94B008CC
:102770000E94C6078FEF9FEFACE281509040A040CF
:10278000E1F700C000000E9423068BE90E94DC05EF
:102790008FEF9FEFACE281509040A040E1F700C086
:1027A0000000C0E08C2F0E94C3058FEF9FEFA8E0D0
:1027B00081509040A040E1F700C00000CE5FC833D8
:1027C00089F783E80E94F5058FEF9FEFA9E5815017
:1027D0009040A040E1F700C000000E94C6070E94A0
:1027E000230687E190E00E948F078EEB64EB0E9446
:1027F000C9030E94EC030E9423060E94A5070E94C1
:10280000B00888E190E00E948F070E94A5070E940F
:10281000230687E190E00E948F070E948C068EEBD2
:1028200064EB0E94C9030E94EC038FEF9FEFACE2C0
:1028300081509040A040E1F700C000000E942306B4
:102840000E948C0686E966E90E94C9038FEF9FE328
:10285000A2E081509040A040E1F700C000000E943B
:10286000EC030E9423068EEB64EB0E94C90381E710
:1028700090E00E948F070E94EC038FEF9FEFACE285
:1028800081509040A040E1F700C000008EEB64EB67
:102890000E94C90388E590E00E943E048EEB64EB41
:1028A0000E94C9030E94EC038FEF9FE7A6E18150CD
:1028B0009040A040E1F700C0000086EB64EB0E946E
:1028C000C90383E590E00E949A070E94EC038FEF12
:1028D0009FE7A6E181509040A040E1F700C00000D2
:1028E0008BE90E94DC058FEF9FEFACE281509040B6
:1028F000A040E1F700C00000C0E08C2F0E94C3059B
:102900008FEF9FEFA8E081509040A040E1F700C01A
:102910000000CE5FC83389F783E80E94F5058FEF8A
:102920009FEFA9E581509040A040E1F700C0000072
:1029300088E190E00E948F070E94C6070E9423064C
:102940000E94EC038FEF9FE7A6E181509040A040EA
:10295000E1F700C0000086E966E90E94C90387E24A
:1029600090E00E948F070E94230683E090E00E947F
:102970008F070E94A5070E94B00888E190E00E949E
:102980008F070E94C6070E9423068BE90E94DC0580
:102990008FEF9FEFACE281509040A040E1F700C084
:1029A0000000C0E08C2F0E94C3058FEF9FEFA8E0CE
:1029B00081509040A040E1F700C00000CE5FC833D6
:1029C00089F783E80E94F5058FEF9FEFA9E5815015
:1029D0009040A040E1F700C0000088E190E00E9434
:1029E0008F070E94C6070E9423060E94EC0388E11D
:1029F00090E00E948F070E94C6070E9423060E9453
:102A0000F60686E966E90E94C9038FEF9FE3A2E01C
:102A100081509040A040E1F700C000000E94EC030C
:102A20000E94230688E090E00E948F070E94A5077D
:102A300087E80E94DC058FEF9FEFACE28150904069
:102A4000A040E1F700C0000080E00E94F5058FEF94
:102A50009FEFACE281509040A040E1F700C0000041
:102A6000C0E08C2F0E94C3058FEF9FEFACE2815036
:102A70009040A040E1F700C00000CB5FCD3289F765
:102A80008FEF9FEFACE281509040A040E1F700C093
:102A9000000082E70E94F5050E94F60686E966E9D5
:102AA0000E94C9038FEF9FE3A2E081509040A040B5
:102AB000E1F700C000000E94EC030E94F60686E9E0
:102AC00066E90E94C9038FEF9FE3A2E08150904026
:102AD000A040E1F700C000000E94EC030E94230622
:102AE00088E190E00E948F070E94A5070E942306BC
:102AF0000E9488048EEB64EB0E94C9030E942306A7
:102B00008EEB64EB0E94C90381E790E00E948F077F
:102B10000E94EC038FEF9FEFACE281509040A04009
:102B2000E1F700C000008EEB64EB0E94C90388E56A
:102B300090E00E943E048EEB64EB0E94C9030E9469
:102B4000EC038FEF9FE7A6E181509040A040E1F7B2
:102B500000C000000E9423060E94B00888E290E0B6
:102B60000E948F070E94A5070E94230684E690E03A
:102B70000E948F0788E590E00E948C068BE90E94F6
:102B8000DC058FEF9FEFACE281509040A040E1F771
:102B900000C00000C0E08C2F0E94C3058FEF9FEFA4
:102BA000A8E081509040A040E1F700C00000CE5F57
:102BB000C83389F783E80E94F5058FEF9FEFA9E5F9
:102BC00081509040A040E1F700C0000088E190E013
:102BD0000E948F070E94C6070E94230688E190E0AA
:102BE0000E948F070E94C6070E94B0080E94C60775
:102BF0000E9423068BE90E94DC058FEF9FEFACE279
:102C000081509040A040E1F700C00000C0E08C2F50
:102C10000E94C3058FEF9FEFA8E081509040A04035
:102C2000E1F700C00000CE5FC83389F783E80E9457
:102C3000F5058FEF9FEFA9E581509040A040E1F7A7
:102C400000C0000088E190E00E948F070E94C60744
:102C50000E94230688E190E00E948F070E94C60729
:102C60000E94B00888E190E00E948F070E94A507AB
:102C70000E94230687E190E00E948F070E948C0645
:102C80008EEB64EB0E94C9030E94EC038FEF9FEF71
:102C9000ACE281509040A040E1F700C000000E94EB
:102CA00023060E948C0686E966E90E94C9038FEF1D
:102CB0009FE3A2E081509040A040E1F700C00000F7
:102CC0000E94EC030E9423068EEB64EB0E94C90372
:102CD00081E790E00E948F070E94EC038FEF9FEF47
:102CE000ACE281509040A040E1F700C000008EEBC4
:102CF00064EB0E94C90388E590E00E943E048EEBDD
:102D000064EB0E94C9030E94EC038FEF9FE7A6E1EA
:102D100081509040A040E1F700C0000086EB64EBDA
:102D20000E94C90383E590E00E949A070E94EC0389
:102D30008FEF9FE7A6E181509040A040E1F700C0EF
:102D400000008BE90E94DC058FEF9FEFACE2815021
:102D50009040A040E1F700C00000C0E08C2F0E942E
:102D6000C3058FEF9FEFA8E081509040A040E1F7AE
:102D700000C00000CE5FC83389F783E80E94F505E4
:102D80008FEF9FEFA9E581509040A040E1F700C090
:102D9000000088E190E00E948F070E94C6070E9411
:102DA00023060E94EC038FEF9FE7A6E1815090403D
:102DB000A040E1F700C0000086E966E90E94C9036F
:102DC00087E290E00E948F070E94230683E090E054
:102DD0000E948F070E94A5070E94B00888E190E03A
:102DE0000E948F070E94C6070E9423068BE90E945B
:102DF000DC058FEF9FEFACE281509040A040E1F7FF
:102E000000C00000C0E08C2F0E94C3058FEF9FEF31
:102E1000A8E081509040A040E1F700C00000CE5FE4
:102E2000C83389F783E80E94F5058FEF9FEFA9E586
:102E300081509040A040E1F700C0000088E190E0A0
:102E40000E948F070E94C6070E9423060E94EC037F
:102E500088E190E00E948F070E94C6070E94230627
:102E60000E94F60686E966E90E94C9038FEF9FE398
:102E7000A2E081509040A040E1F700C000000E9415
:102E8000EC030E94230688E090E00E948F070E94D6
:102E9000A50787E80E94DC058FEF9FEFACE2815029
:102EA0009040A040E1F700C0000080E00E94F505DE
:102EB0008FEF9FEFACE281509040A040E1F700C05F
:102EC0000000C0E08C2F0E94C3058FEF9FEFACE2A3
:102ED00081509040A040E1F700C00000CB5FCD32B0
:102EE00089F78FEF9FEFACE281509040A040E1F76F
:102EF00000C0000082E70E94F5050E94F60686E900
:102F000066E90E94C9038FEF9FE3A2E081509040E1
:102F1000A040E1F700C000000E94EC030E94F6060A
:102F200086E966E90E94C9038FEF9FE3A2E0815022
:102F30009040A040E1F700C000000E94EC030E9416
:102F4000230688E190E00E948F078CE86CE80E94DD
:102F5000C9030E9423060E94B00818C490911A0267
:102F6000891709F013C40E94C6070E9423068FEF39
:102F70009FEFACE281509040A040E1F700C000001C
:102F80000E94C6070E94230686E190E00E948F07F8
:102F90008CE86CE80E94C9030E9423060E948C06FC
:102FA0008EEB64EB0E94C9030E94EC038FEF9FEF4E
:102FB000ACE281509040A040E1F700C000000E94C8
:102FC00023060E94B00888E290E00E948F070E94CA
:102FD000A5070E94230684E690E00E948F0788E5FB
:102FE00090E00E948C068BE90E94DC058FEF9FEF3A
:102FF000ACE281509040A040E1F700C00000C0E08A
:103000008C2F0E94C3058FEF9FEFA8E08150904066
:10301000A040E1F700C00000CE5FC83389F783E825
:103020000E94F5058FEF9FEFA9E581509040A040E9
:10303000E1F700C0000088E190E00E948F070E9445
:10304000C6070E94230688E190E00E948F070E9435
:10305000C6070E94B0080E94A5070E9423060E948E
:1030600088040E94230687E80E94DC058FEF9FEF0B
:10307000ACE281509040A040E1F700C0000080E049
:103080000E94F5058FEF9FEFACE281509040A04089
:10309000E1F700C00000C0E08C2F0E94C3058FEF55
:1030A0009FEFACE281509040A040E1F700C00000EB
:1030B000CB5FCD3289F78FEF9FEFACE2815090402C
:1030C000A040E1F700C0000082E70E94F5050E94E1
:1030D000C6070E9423060E9488040E9423060E94BD
:1030E000A5070E94B0080E94A5070E9423060E941F
:1030F000C6070E9423060E948C0686E966E90E94A4
:10310000C9038FEF9FE3A2E081509040A040E1F718
:1031100000C000000E94EC030E9423068EEB64EBCB
:103120000E94C90381E790E00E948F070E94EC0390
:103130008FEF9FEFACE281509040A040E1F700C0DC
:1031400000008EEB64EB0E94C90388E590E00E94CA
:103150003E048EEB64EB0E94C9030E94EC038FEFE8
:103160009FE7A6E181509040A040E1F700C0000039
:1031700086EB64EB0E94C90383E590E00E949A0706
:103180000E94EC038FEF9FE7A6E181509040A040A2
:10319000E1F700C000008BE90E94DC058FEF9FEF94
:1031A000ACE281509040A040E1F700C00000C0E0D8
:1031B0008C2F0E94C3058FEF9FEFA8E081509040B5
:1031C000A040E1F700C00000CE5FC83389F783E874
:1031D0000E94F5058FEF9FEFA9E581509040A04038
:1031E000E1F700C0000088E190E00E948F070E9494
:1031F000C6070E9423060E94EC038FEF9FE7A6E11B
:1032000081509040A040E1F700C0000086E966E9E7
:103210000E94C90387E290E00E948F070E94230664
:1032200083E090E00E948F070E94A5070E94B008EB
:1032300088E190E00E948F070E94C6070E94230643
:103240008BE90E94DC058FEF9FEFACE2815090404C
:10325000A040E1F700C00000C0E08C2F0E94C30531
:103260008FEF9FEFA8E081509040A040E1F700C0B1
:103270000000CE5FC83389F783E80E94F5058FEF21
:103280009FEFA9E581509040A040E1F700C0000009
:1032900088E190E00E948F070E94C6070E942306E3
:1032A0000E94EC0388E190E00E948F070E94C6070D
:1032B0000E9423060E94F60686E966E90E94C90379
:1032C0008FEF9FE3A2E081509040A040E1F700C063
:1032D00000000E94EC030E94230688E090E00E9418
:1032E0008F070E94A50787E80E94DC058FEF9FEFFC
:1032F000ACE281509040A040E1F700C0000080E0C7
:103300000E94F5058FEF9FEFACE281509040A04006
:10331000E1F700C00000C0E08C2F0E94C3058FEFD2
:103320009FEFACE281509040A040E1F700C0000068
:10333000CB5FCD3289F78FEF9FEFACE281509040A9
:10334000A040E1F700C0000082E70E94F5050E945E
:10335000F60686E966E90E94C9038FEF9FE3A2E0C3
:1033600081509040A040E1F700C000000E94EC03B3
:103370000E94F60686E966E90E94C9038FEF9FE383
:10338000A2E081509040A040E1F700C000000E9400
:10339000EC030E9423060E94C6070E9423060E9497
:1033A000A5070E9423060E94B0080E94A5070E945C
:1033B00023068BE90E94DC058FEF9FEFACE2815082
:1033C0009040A040E1F700C00000C0E08C2F0E94B8
:1033D000C3058FEF9FEFA8E081509040A040E1F738
:1033E00000C00000CE5FC83389F783E80E94F5056E
:1033F0008FEF9FEFA9E581509040A040E1F700C01A
:1034000000000E94C6070E94230688E190E00E9407
:103410008F070E9423060E94A5070E94B0080E9401
:10342000C6070E9423068BE90E94DC058FEF9FEF01
:10343000ACE281509040A040E1F700C00000C0E045
:103440008C2F0E94C3058FEF9FEFA8E08150904022
:10345000A040E1F700C00000CE5FC83389F783E8E1
:103460000E94F5058FEF9FEFA9E581509040A040A5
:10347000E1F700C0000088E190E00E948F070E9401
:10348000C6070E94230688E190E00E948F070E94F1
:10349000C6070E94B00888E190E00E948F070E9452
:1034A000A5070E94230687E190E00E948F070E94F3
:1034B0008C068EEB64EB0E94C9030E94EC038FEF35
:1034C0009FEFACE281509040A040E1F700C00000C7
:1034D0000E9423060E948C0686E966E90E94C903C1
:1034E0008FEF9FE3A2E081509040A040E1F700C041
:1034F00000000E94EC030E9423068EEB64EB0E9406
:10350000C90381E790E00E948F070E94EC038FEFD0
:103510009FEFACE281509040A040E1F700C0000076
:103520008EEB64EB0E94C90388E590E00E943E04A4
:103530008EEB64EB0E94C9030E94EC038FEF9FE7C0
:10354000A6E181509040A040E1F700C0000086EB6A
:1035500064EB0E94C90383E590E00E949A070E94F1
:10356000EC038FEF9FE7A6E181509040A040E1F788
:1035700000C000008BE90E94DC058FEF9FEFACE2FA
:1035800081509040A040E1F700C00000C0E08C2FC7
:103590000E94C3058FEF9FEFA8E081509040A040AC
:1035A000E1F700C00000CE5FC83389F783E80E94CE
:1035B000F5058FEF9FEFA9E581509040A040E1F71E
:1035C00000C0000088E190E00E948F070E94C607BB
:1035D0000E9423060E94EC038FEF9FE7A6E1815033
:1035E0009040A040E1F700C0000086E966E90E9433
:1035F000C90387E290E00E948F070E94230683E0C0
:1036000090E00E948F070E94A5070E94B00888E101
:1036100090E00E948F070E94C6070E9423068BE954
:103620000E94DC058FEF9FEFACE281509040A040FC
:10363000E1F700C00000C0E08C2F0E94C3058FEFAF
:103640009FEFA8E081509040A040E1F700C000004B
:10365000CE5FC83389F783E80E94F5058FEF9FEFAF
:10366000A9E581509040A040E1F700C0000088E14A
:1036700090E00E948F070E94C6070E9423060E94C6
:10368000EC0388E190E00E948F070E94C6070E9429
:1036900023060E94F60686E966E90E94C9038FEFB9
:1036A0009FE3A2E081509040A040E1F700C00000FD
:1036B0000E94EC030E94230688E090E00E948F079E
:1036C0000E94A50787E80E94DC058FEF9FEFACE220
:1036D00081509040A040E1F700C0000080E00E94CF
:1036E000F5058FEF9FEFACE281509040A040E1F7ED
:1036F00000C00000C0E08C2F0E94C3058FEF9FEF39
:10370000ACE281509040A040E1F700C00000CB5FE8
:10371000CD3289F78FEF9FEFACE281509040A0400F
:10372000E1F700C0000082E70E94F5050E94F6065E
:1037300086E966E90E94C9038FEF9FE3A2E081500A
:103740009040A040E1F700C000000E94EC030E94FE
:10375000F60686E966E90E94C9038FEF9FE3A2E0BF
:1037600081509040A040E1F700C000000E94EC03AF
:103770000E94230688E190E00E948F078CE86CE8A5
:103780000E94C9030E9423060E94B008809129026A
:10379000882311F40C9463339091100280911A02E3
:1037A000981709F0E6C30E94C6070E9423068FEF10
:1037B0009FEFACE281509040A040E1F700C00000D4
:1037C0000E94C6070E94230686E190E00E948F07B0
:1037D0008CE86CE80E94C9030E9423060E948C06B4
:1037E0008EEB64EB0E94C9030E94EC038FEF9FEF06
:1037F000ACE281509040A040E1F700C000000E9480
:1038000023060E94B00888E290E00E948F070E9481
:10381000A5070E94230684E690E00E948F0788E5B2
:1038200090E00E948C068BE90E94DC058FEF9FEFF1
:10383000ACE281509040A040E1F700C00000C0E041
:103840008C2F0E94C3058FEF9FEFA8E0815090401E
:10385000A040E1F700C00000CE5FC83389F783E8DD
:103860000E94F5058FEF9FEFA9E581509040A040A1
:10387000E1F700C0000088E190E00E948F070E94FD
:10388000C6070E94230688E190E00E948F070E94ED
:10389000C6070E94B00888E190E00E948F070E944E
:1038A000A5070E94230687E190E00E948F070E94EF
:1038B0008C068EEB64EB0E94C9030E94EC038FEF31
:1038C0009FEFACE281509040A040E1F700C00000C3
:1038D0000E9423060E948C0686E966E90E94C903BD
:1038E0008FEF9FE3A2E081509040A040E1F700C03D
:1038F00000000E94EC030E9423068EEB64EB0E9402
:10390000C90381E790E00E948F070E94EC038FEFCC
:103910009FEFACE281509040A040E1F700C0000072
:103920008EEB64EB0E94C90388E590E00E943E04A0
:103930008EEB64EB0E94C9030E94EC038FEF9FE7BC
:10394000A6E181509040A040E1F700C0000086EB66
:1039500064EB0E94C90383E590E00E949A070E94ED
:10396000EC038FEF9FE7A6E181509040A040E1F784
:1039700000C000008BE90E94DC058FEF9FEFACE2F6
:1039800081509040A040E1F700C00000C0E08C2FC3
:103990000E94C3058FEF9FEFA8E081509040A040A8
:1039A000E1F700C00000CE5FC83389F783E80E94CA
:1039B000F5058FEF9FEFA9E581509040A040E1F71A
:1039C00000C0000088E190E00E948F070E94C607B7
:1039D0000E9423060E94EC038FEF9FE7A6E181502F
:1039E0009040A040E1F700C0000086E966E90E942F
:1039F000C90387E290E00E948F070E94230683E0BC
:103A000090E00E948F070E94A5070E94B00888E1FD
:103A100090E00E948F070E94C6070E9423068BE950
:103A20000E94DC058FEF9FEFACE281509040A040F8
:103A3000E1F700C00000C0E08C2F0E94C3058FEFAB
:103A40009FEFA8E081509040A040E1F700C0000047
:103A5000CE5FC83389F783E80E94F5058FEF9FEFAB
:103A6000A9E581509040A040E1F700C0000088E146
:103A700090E00E948F070E94C6070E9423060E94C2
:103A8000EC0388E190E00E948F070E94C6070E9425
:103A900023060E94F60686E966E90E94C9038FEFB5
:103AA0009FE3A2E081509040A040E1F700C00000F9
:103AB0000E94EC030E94230688E090E00E948F079A
:103AC0000E94A50787E80E94DC058FEF9FEFACE21C
:103AD00081509040A040E1F700C0000080E00E94CB
:103AE000F5058FEF9FEFACE281509040A040E1F7E9
:103AF00000C00000C0E08C2F0E94C3058FEF9FEF35
:103B0000ACE281509040A040E1F700C00000CB5FE4
:103B1000CD3289F78FEF9FEFACE281509040A0400B
:103B2000E1F700C0000082E70E94F5050E94F6065A
:103B300086E966E90E94C9038FEF9FE3A2E0815006
:103B40009040A040E1F700C000000E94EC030E94FA
:103B5000F60686E966E90E94C9038FEF9FE3A2E0BB
:103B600081509040A040E1F700C000000E94EC03AB
:103B70000E94230688E190E00E948F070E9423069E
:103B80000E94B0080E94A5070E9423060E94A50774
:103B90000E9423068BE90E94DC058FEF9FEFACE2C9
:103BA00081509040A040E1F700C00000C0E08C2FA1
:103BB0000E94C3058FEF9FEFA8E081509040A04086
:103BC000E1F700C00000CE5FC83389F783E80E94A8
:103BD000F5058FEF9FEFA9E581509040A040E1F7F8
:103BE00000C000000E94C6070E94230688E190E002
:103BF0000E948F070E9423060E94A5070E94B0081A
:103C00000E94C6070E9423068BE90E94DC058FEF05
:103C10009FEFACE281509040A040E1F700C000006F
:103C2000C0E08C2F0E94C3058FEF9FEFA8E081506A
:103C30009040A040E1F700C00000CE5FC83389F794
:103C400083E80E94F5058FEF9FEFA9E58150904032
:103C5000A040E1F700C0000088E190E00E948F07DB
:103C60000E94C6070E94230688E190E00E948F0709
:103C70000E94C6070E94B00888E190E00E948F076A
:103C80000E94A5070E94230687E190E00E948F070B
:103C90000E948C068EEB64EB0E94C9030E94EC0329
:103CA0008FEF9FEFACE281509040A040E1F700C061
:103CB00000000E9423060E948C0686E966E90E94A5
:103CC000C9038FEF9FE3A2E081509040A040E1F74D
:103CD00000C000000E94EC030E9423068EEB64EB00
:103CE0000E94C90381E790E00E948F070E94EC03C5
:103CF0008FEF9FEFACE281509040A040E1F700C011
:103D000000008EEB64EB0E94C90388E590E00E94FE
:103D10003E048EEB64EB0E94C9030E94EC038FEF1C
:103D20009FE7A6E181509040A040E1F700C000006D
:103D300086EB64EB0E94C90383E590E00E949A073A
:103D40000E94EC038FEF9FE7A6E181509040A040D6
:103D5000E1F700C000008BE90E94DC058FEF9FEFC8
:103D6000ACE281509040A040E1F700C00000C0E00C
:103D70008C2F0E94C3058FEF9FEFA8E081509040E9
:103D8000A040E1F700C00000CE5FC83389F783E8A8
:103D90000E94F5058FEF9FEFA9E581509040A0406C
:103DA000E1F700C0000088E190E00E948F070E94C8
:103DB000C6070E9423060E94EC038FEF9FE7A6E14F
:103DC00081509040A040E1F700C0000086E966E91C
:103DD0000E94C90387E290E00E948F070E94230699
:103DE00083E090E00E948F070E94A5070E94B00820
:103DF00088E190E00E948F070E94C6070E94230678
:103E00008BE90E94DC058FEF9FEFACE28150904080
:103E1000A040E1F700C00000C0E08C2F0E94C30565
:103E20008FEF9FEFA8E081509040A040E1F700C0E5
:103E30000000CE5FC83389F783E80E94F5058FEF55
:103E40009FEFA9E581509040A040E1F700C000003D
:103E500088E190E00E948F070E94C6070E94230617
:103E60000E94EC0388E190E00E948F070E94C60741
:103E70000E9423060E94F60686E966E90E94C903AD
:103E80008FEF9FE3A2E081509040A040E1F700C097
:103E900000000E94EC030E94230688E090E00E944C
:103EA0008F070E94A50787E80E94DC058FEF9FEF30
:103EB000ACE281509040A040E1F700C0000080E0FB
:103EC0000E94F5058FEF9FEFACE281509040A0403B
:103ED000E1F700C00000C0E08C2F0E94C3058FEF07
:103EE0009FEFACE281509040A040E1F700C000009D
:103EF000CB5FCD3289F78FEF9FEFACE281509040DE
:103F0000A040E1F700C0000082E70E94F5050E9492
:103F1000F60686E966E90E94C9038FEF9FE3A2E0F7
:103F200081509040A040E1F700C000000E94EC03E7
:103F30000E94F60686E966E90E94C9038FEF9FE3B7
:103F4000A2E081509040A040E1F700C000000E9434
:103F5000EC030E9423060E94C6070E94230684E603
:103F600090E00E948F070E94A5070E9423060E94EE
:103F7000B0089091100280913402981709F0EDC3B7
:103F80000E94A50783E290E00E948F070E94A50788
:103F90000E94230686E190E00E948F070E94F606A9
:103FA0008EEB64EB0E94C9030E94EC038FEF9FEF3E
:103FB000ACE281509040A040E1F700C000000E94B8
:103FC00023068BE90E94DC058FEF9FEFACE2815066
:103FD0009040A040E1F700C00000C0E08C2F0E949C
:103FE000C3058FEF9FEFA8E081509040A040E1F71C
:103FF00000C00000CE5FC83389F783E80E94F50552
:104000008FEF9FEFA9E581509040A040E1F700C0FD
:1040100000000E94C6070E94230687E190E00E94EC
:104020008F078EEB64EB0E94C9030E94EC030E9491
:1040300023060E94A5070E94B00888E190E00E9434
:104040008F070E94A5070E94230687E190E00E9447
:104050008F070E948C068EEB64EB0E94C9030E94BE
:10406000EC038FEF9FEFACE281509040A040E1F76E
:1040700000C000000E9423060E948C0686E966E9C3
:104080000E94C9038FEF9FE3A2E081509040A040BF
:10409000E1F700C000000E94EC030E9423068EEBB3
:1040A00064EB0E94C90381E790E00E948F070E94A1
:1040B000EC038FEF9FEFACE281509040A040E1F71E
:1040C00000C000008EEB64EB0E94C90388E590E01D
:1040D0000E943E048EEB64EB0E94C9030E94EC0335
:1040E0008FEF9FE7A6E181509040A040E1F700C02C
:1040F000000086EB64EB0E94C90383E590E00E9418
:104100009A070E94EC038FEF9FE7A6E18150904051
:10411000A040E1F700C000008BE90E94DC058FEFB2
:104120009FEFACE281509040A040E1F700C000005A
:10413000C0E08C2F0E94C3058FEF9FEFA8E0815055
:104140009040A040E1F700C00000CE5FC83389F77F
:1041500083E80E94F5058FEF9FEFA9E5815090401D
:10416000A040E1F700C0000088E190E00E948F07C6
:104170000E94C6070E9423060E94EC038FEF9FE770
:10418000A6E181509040A040E1F700C0000086E920
:1041900066E90E94C90387E290E00E948F070E94AF
:1041A000230683E090E00E948F070E94A5070E94EB
:1041B000B00888E190E00E948F070E94C6070E9425
:1041C00023068BE90E94DC058FEF9FEFACE2815064
:1041D0009040A040E1F700C00000C0E08C2F0E949A
:1041E000C3058FEF9FEFA8E081509040A040E1F71A
:1041F00000C00000CE5FC83389F783E80E94F50550
:104200008FEF9FEFA9E581509040A040E1F700C0FB
:10421000000088E190E00E948F070E94C6070E947C
:1042200023060E94EC0388E190E00E948F070E9421
:10423000C6070E9423060E94F60686E966E90E94E8
:10424000C9038FEF9FE3A2E081509040A040E1F7C7
:1042500000C000000E94EC030E94230688E090E06A
:104260000E948F070E94A50787E80E94DC058FEF58
:104270009FEFACE281509040A040E1F700C0000009
:1042800080E00E94F5058FEF9FEFACE281509040F7
:10429000A040E1F700C00000C0E08C2F0E94C305E1
:1042A0008FEF9FEFACE281509040A040E1F700C05B
:1042B0000000CB5FCD3289F78FEF9FEFACE28150EA
:1042C0009040A040E1F700C0000082E70E94F505A1
:1042D0000E94F60686E966E90E94C9038FEF9FE314
:1042E000A2E081509040A040E1F700C000000E9491
:1042F000EC030E94F60686E966E90E94C9038FEF87
:104300009FE3A2E081509040A040E1F700C0000090
:104310000E94EC030E94230688E290E00E948F072F
:104320008FEF9FEFACE281509040A040E1F700C0DA
:1043300000000E94A5070E94230680E790E00E94EB
:104340008F078FEF9FEFACE281509040A040E1F7E4
:1043500000C000000E9423060E94C6070E94230698
:104360000E94B0080E94A5070E94230681E790E002
:104370000E948F0788E590E00E948C068BE90E94DE
:10438000DC058FEF9FEFACE281509040A040E1F759
:1043900000C00000C0E08C2F0E94C3058FEF9FEF8C
:1043A000A8E081509040A040E1F700C00000CE5F3F
:1043B000C83389F783E80E94F5050E94A5070E948B
:1043C00023060E94C6070E94B00888E190E00E9480
:1043D0008F070E94A5078FEF9FEFACE281509040BE
:1043E000A040E1F700C000000E9423068BE90E9474
:1043F000DC058FEF9FEFACE281509040A040E1F7E9
:1044000000C00000C0E08C2F0E94C3058FEF9FEF1B
:10441000A8E081509040A040E1F700C00000CE5FCE
:10442000C83389F783E80E94F5058FEF9FEFA9E570
:1044300081509040A040E1F700C0000088E190E08A
:104440000E948F070E94C6070E94230688E190E021
:104450000E948F070E94C6070E94B00888E190E082
:104460000E948F070E94A5070E94230687E190E023
:104470000E948F070E948C068EEB64EB0E94C9039A
:104480000E94EC038FEF9FEFACE281509040A04080
:10449000E1F700C000000E9423060E948C0686E916
:1044A00066E90E94C9038FEF9FE3A2E0815090402C
:1044B000A040E1F700C000000E94EC030E94230628
:1044C0008EEB64EB0E94C90381E790E00E948F07A6
:1044D0000E94EC038FEF9FEFACE281509040A04030
:1044E000E1F700C000008EEB64EB0E94C90388E591
:1044F00090E00E943E048EEB64EB0E94C9030E9490
:10450000EC038FEF9FE7A6E181509040A040E1F7D8
:1045100000C0000086EB64EB0E94C90383E590E0D5
:104520000E949A070E94EC038FEF9FE7A6E181505B
:104530009040A040E1F700C000008BE90E94DC053C
:104540008FEF9FEFACE281509040A040E1F700C0B8
:104550000000C0E08C2F0E94C3058FEF9FEFA8E002
:1045600081509040A040E1F700C00000CE5FC8330A
:1045700089F783E80E94F5058FEF9FEFA9E5815049
:104580009040A040E1F700C0000088E190E00E9468
:104590008F070E94C6070E9423060E94EC038FEF3C
:1045A0009FE7A6E181509040A040E1F700C00000E5
:1045B00086E966E90E94C90387E290E00E948F07BE
:1045C0000E94230683E090E00E948F070E94A507C7
:1045D0000E94B00888E190E00E948F070E94C60701
:1045E0000E9423068BE90E94DC058FEF9FEFACE26F
:1045F00081509040A040E1F700C00000C0E08C2F47
:104600000E94C3058FEF9FEFA8E081509040A0402B
:10461000E1F700C00000CE5FC83389F783E80E944D
:10462000F5058FEF9FEFA9E581509040A040E1F79D
:1046300000C0000088E190E00E948F070E94C6073A
:104640000E9423060E94EC0388E190E00E948F07FD
:104650000E94C6070E9423060E94F60686E966E9C4
:104660000E94C9038FEF9FE3A2E081509040A040D9
:10467000E1F700C000000E94EC030E94230688E0DE
:1046800090E00E948F070E94A50787E80E94DC0542
:104690008FEF9FEFACE281509040A040E1F700C067
:1046A000000080E00E94F5058FEF9FEFACE28150A3
:1046B0009040A040E1F700C00000C0E08C2F0E94B5
:1046C000C3058FEF9FEFACE281509040A040E1F72F
:1046D00000C00000CB5FCD3289F78FEF9FEFACE2D7
:1046E00081509040A040E1F700C0000082E70E94A6
:1046F000F5050E94F60686E966E90E94C9038FEF78
:104700009FE3A2E081509040A040E1F700C000008C
:104710000E94EC030E94F60686E966E90E94C9033E
:104720008FEF9FE3A2E081509040A040E1F700C0EE
:1047300000000E94EC030E94230688E190E00E94A2
:104740008F070E94C6070E9423060E94A5070E94A9
:1047500023060E94B0080C94633385E290E00E9427
:104760008F0780E967E80E94C9030E94EC038FEF7E
:104770009FEFACE281509040A040E1F700C0000004
:104780000E94F60686E966E90E94C9038FEF9FE35F
:10479000A2E081509040A040E1F700C000000E94DC
:1047A000EC030E94230681E790E00E948F070E949D
:1047B000EC038FEF9FEFACE281509040A040E1F717
:1047C00000C000008EEB64EB0E94C90388E590E016
:1047D0000E943E048EEB64EB0E94C9030E94EC032E
:1047E0008FEF9FE7A6E181509040A040E1F700C025
:1047F000000086EB64EB0E94C90383E590E00E9411
:104800009A070E94EC038FEF9FE7A6E1815090404A
:10481000A040E1F700C000000E94D50888E190E0C8
:104820000E948F070E94C6070E9423060E94EC0385
:104830008FEF9FE7A6E181509040A040E1F700C0D4
:10484000000087E290E00E948F070E94230683E029
:1048500090E00E948F070E94A5070E94B0080E9466
:10486000F60686E966E90E94C9038FEF9FE3A2E09E
:1048700081509040A040E1F700C000000E94EC038E
:104880000E94230688E090E00E948F070E94A507FF
:104890000E94E7070E94F60686E966E90E94C903BE
:1048A0008FEF9FE3A2E081509040A040E1F700C06D
:1048B00000000E94EC030E94F60686E966E90E9469
:1048C000C9038FEF9FE3A2E081509040A040E1F741
:1048D00000C000000E94EC030E9423068FEF9FEFB0
:1048E000ACE281509040A040E1F700C0000085E1BB
:1048F00090E00E948F070E94EC038FEF9FE7A6E1F4
:1049000081509040A040E1F700C000000E942306C3
:104910008FEF9FEFACE281509040A040E1F700C0E4
:10492000000080E00E94C30587E80E94DC0580E764
:104930000E94F5050E9423068CE390E00E948F07F9
:104940000E94EC038FEF9FEFACE281509040A040BB
:10495000E1F700C000000E94230689EB90E00E946E
:104960008F070E94EC038FEF9FEFACE281509040E5
:10497000A040E1F700C0000086E966E90E94C90393
:104980008CE590E00E947B048EEB64EB0E94C903EF
:104990000E94EC038FEF9FE7A6E181509040A0407A
:1049A000E1F700C0000086EB64EB0E94C9038CE3D2
:1049B00090E00E949A0780E00E94C3058BE20E946B
:1049C000DC058FEF9FEFACE281509040A040E1F713
:1049D00000C000000E941C058093340286E490E031
:1049E0000E948F078FEF9FEFA0EE81509040A04074
:1049F000E1F700C0000082EB90E00E94490484EBE4
:104A000064EB0E94C9030E94EC038EE690E00E94D2
:104A10009A07C7E88C2F0E94DC058FEF9FE7A6E17D
:104A200081509040A040E1F700C00000C550C8325E
:104A300089F70E941C0580932302823559F09091DA
:104A40003402923521F082E580931A0215C0873432
:104A500061F004C090913402973421F087E4809390
:104A60001A020AC0823441F004C0809134028234B8
:104A700019F082E480931A0280911A029091170231
:104A8000891759F490913402891739F090912302D3
:104A9000891719F081E48093290280913402909162
:104AA0001702891759F490911A02891739F09091D9
:104AB00023028917A1F082E48093290280912302C6
:104AC00090911702891759F490913402891739F09F
:104AD00090911A02891751F083E4809329029091F2
:104AE000170280911A02981709F0B4C4809110023D
:104AF00090913402981709F05CC20E94A5070E94A9
:104B0000B00883E290E00E948F070E94A5070E94F0
:104B1000230686E190E00E948F070E94F6068EEB46
:104B200064EB0E94C9030E94EC038FEF9FEFACE29D
:104B300081509040A040E1F700C000000E94230691
:104B40000E94D5080E94C6070E94230687E190E0D4
:104B50000E948F078EEB64EB0E94C9030E94EC0356
:104B60000E9423060E94A5070E94B0080E94C60763
:104B70000E9423060E94D5080E94A5070E942306D2
:104B80000E94A5070E94B00888E190E00E948F076C
:104B90000E94A5070E94230687E190E00E948F07EC
:104BA0000E948C068EEB64EB0E94C9030E94EC030A
:104BB0008FEF9FEFACE281509040A040E1F700C042
:104BC00000000E9423060E948C0686E966E90E9486
:104BD000C9038FEF9FE3A2E081509040A040E1F72E
:104BE00000C000000E94EC030E9423068EEB64EBE1
:104BF0000E94C90381E790E00E948F070E94EC03A6
:104C00008FEF9FEFACE281509040A040E1F700C0F1
:104C100000008EEB64EB0E94C90388E590E00E94DF
:104C20003E048EEB64EB0E94C9030E94EC038FEFFD
:104C30009FE7A6E181509040A040E1F700C000004E
:104C400086EB64EB0E94C90383E590E00E949A071B
:104C50000E94EC038FEF9FE7A6E181509040A040B7
:104C6000E1F700C000000E94D50888E190E00E94B2
:104C70008F070E94C6070E9423060E94EC038FEF55
:104C80009FE7A6E181509040A040E1F700C00000FE
:104C900086E966E90E94C90387E290E00E948F07D7
:104CA0000E94230683E090E00E948F070E94A507E0
:104CB0000E94B00888E190E00E948F070E94C6071A
:104CC0000E9423060E94D50888E190E00E948F0789
:104CD0000E94C6070E9423060E94EC0388E190E030
:104CE0000E948F070E94C6070E9423060E94B008F8
:104CF0000E94F60686E966E90E94C9038FEF9FE3EA
:104D0000A2E081509040A040E1F700C000000E9466
:104D1000EC030E94230688E090E00E948F070E9427
:104D2000A50787E80E94DC058FEF9FEFACE281507A
:104D30009040A040E1F700C0000080E00E94F5052F
:104D40008FEF9FEFACE281509040A040E1F700C0B0
:104D50000000C0E08C2F0E94C3058FEF9FEFACE2F4
:104D600081509040A040E1F700C00000CB5FCD3201
:104D700089F78FEF9FEFACE281509040A040E1F7C0
:104D800000C0000082E70E94F5050E94F60686E951
:104D900066E90E94C9038FEF9FE3A2E08150904033
:104DA000A040E1F700C000000E94EC030E94F6065C
:104DB00086E966E90E94C9038FEF9FE3A2E0815074
:104DC0009040A040E1F700C000000E94EC030E9468
:104DD00023060E94A5070E9423060E9488048FE5EF
:104DE0006AE50E94C9030E94EC030E9423060E9408
:104DF000C6070E9423060E94A5070E9423060E9460
:104E0000B0080E94C6070E9423060E94D5080E948F
:104E1000C6070E9423060E9488040E9423060E945F
:104E2000A5070E94B0080E94C6070E9423060E94A0
:104E30000F090E94A5070E9423060E94A5070E9451
:104E4000B0080E94A5070E9423060E9488040E94C1
:104E500023060E940F090E94C6070E9423060E9493
:104E6000A5070E9423060E94A5070E9423060E9410
:104E7000A5070E94B00888E190E00E948F070E9479
:104E8000C6070E9423060E940F0988E190E00E9455
:104E90008F070E94C6070E9423060E94EC0388E148
:104EA00090E00E948F070E94C6070E9423060E947E
:104EB000B0080E94F60686E966E90E94C9038FEFF2
:104EC0009FE3A2E081509040A040E1F700C00000C5
:104ED0000E94EC030E94230688E090E00E948F0766
:104EE0000E94A50787E80E94DC058FEF9FEFACE2E8
:104EF00081509040A040E1F700C0000080E00E9497
:104F0000F5058FEF9FEFACE281509040A040E1F7B4
:104F100000C00000C0E08C2F0E94C3058FEF9FEF00
:104F2000ACE281509040A040E1F700C00000CB5FB0
:104F3000CD3289F78FEF9FEFACE281509040A040D7
:104F4000E1F700C0000082E70E94F5050E94F60626
:104F500086E966E90E94C9038FEF9FE3A2E08150D2
:104F60009040A040E1F700C000000E94EC030E94C6
:104F7000F60686E966E90E94C9038FEF9FE3A2E087
:104F800081509040A040E1F700C000000E94EC0377
:104F90000E9423060E94A5070E9423060E948804FF
:104FA0000E9423060E94C6070E9423060E94B008A2
:104FB00051C290912302891709F04CC20E94C60782
:104FC0000E9423060E94A5070E9423060E94A507AF
:104FD0000E9423060E94B0080E94A5070E94230693
:104FE0000E94D5080E94C6070E94230687E190E030
:104FF0000E948F078EEB64EB0E94C9030E94EC03B2
:105000000E9423060E94A5070E94B0080E94C607BE
:105010000E9423060E94D5080E94A5070E9423062D
:105020000E94A5070E94B00888E190E00E948F07C7
:105030000E94A5070E94230687E190E00E948F0747
:105040000E948C068EEB64EB0E94C9030E94EC0365
:105050008FEF9FEFACE281509040A040E1F700C09D
:1050600000000E9423060E948C0686E966E90E94E1
:10507000C9038FEF9FE3A2E081509040A040E1F789
:1050800000C000000E94EC030E9423068EEB64EB3C
:105090000E94C90381E790E00E948F070E94EC0301
:1050A0008FEF9FEFACE281509040A040E1F700C04D
:1050B00000008EEB64EB0E94C90388E590E00E943B
:1050C0003E048EEB64EB0E94C9030E94EC038FEF59
:1050D0009FE7A6E181509040A040E1F700C00000AA
:1050E00086EB64EB0E94C90383E590E00E949A0777
:1050F0000E94EC038FEF9FE7A6E181509040A04013
:10510000E1F700C000000E940F0988E190E00E94D2
:105110008F070E94C6070E9423060E94EC038FEFB0
:105120009FE7A6E181509040A040E1F700C0000059
:1051300086E966E90E94C90387E290E00E948F0732
:105140000E94230683E090E00E948F070E94A5073B
:105150000E94B00888E190E00E948F070E94C60775
:105160000E9423060E94D50888E190E00E948F07E4
:105170000E94C6070E9423060E94EC0388E190E08B
:105180000E948F070E94C6070E9423060E94B00853
:105190000E94F60686E966E90E94C9038FEF9FE345
:1051A000A2E081509040A040E1F700C000000E94C2
:1051B000EC030E94230688E090E00E948F070E9483
:1051C000A50787E80E94DC058FEF9FEFACE28150D6
:1051D0009040A040E1F700C0000080E00E94F5058B
:1051E0008FEF9FEFACE281509040A040E1F700C00C
:1051F0000000C0E08C2F0E94C3058FEF9FEFACE250
:1052000081509040A040E1F700C00000CB5FCD325C
:1052100089F78FEF9FEFACE281509040A040E1F71B
:1052200000C0000082E70E94F5050E94F60686E9AC
:1052300066E90E94C9038FEF9FE3A2E0815090408E
:10524000A040E1F700C000000E94EC030E94F606B7
:1052500086E966E90E94C9038FEF9FE3A2E08150CF
:105260009040A040E1F700C000000E94EC030E94C3
:1052700023060E94D5080E94A5070E9423060E94CB
:1052800088048FE56AE50E94C9030E94EC030E942E
:1052900023060E9488040E9423060E94B0080E94F0
:1052A000C6070E9423060E94A5070E9423060E94AB
:1052B000D5080E94C6070E9423060E9488040E9407
:1052C00023060E94A5070E94B0080E94C6070E94FC
:1052D00023060E940F090E94A5070E9423060E9430
:1052E000A5070E94B0080E94A5070E9423060E94FD
:1052F00088040E9423060E940F090E94C6070E948C
:1053000023060E94A5070E9423060E94A5070E946B
:1053100023060E94A5070E94B00888E190E00E9441
:105320008F070E94C6070E9423060E940F0988E18A
:1053300090E00E948F070E94C6070E9423060E94E9
:10534000EC0388E190E00E948F070E94C6070E944C
:1053500023060E94B0080E94F60686E966E90E94CC
:10536000C9038FEF9FE3A2E081509040A040E1F796
:1053700000C000000E94EC030E94230688E090E039
:105380000E948F070E94A50787E80E94DC058FEF27
:105390009FEFACE281509040A040E1F700C00000D8
:1053A00080E00E94F5058FEF9FEFACE281509040C6
:1053B000A040E1F700C00000C0E08C2F0E94C305B0
:1053C0008FEF9FEFACE281509040A040E1F700C02A
:1053D0000000CB5FCD3289F78FEF9FEFACE28150B9
:1053E0009040A040E1F700C0000082E70E94F50570
:1053F0000E94F60686E966E90E94C9038FEF9FE3E3
:10540000A2E081509040A040E1F700C000000E945F
:10541000EC030E94F60686E966E90E94C9038FEF55
:105420009FE3A2E081509040A040E1F700C000005F
:105430000E94EC030E9423060E94A5070E942306F7
:105440000E9488040E9423060E94C6070E94230629
:105450000E94B0089091170280913402981711F0C1
:105460000C9463338091100290911A02981709F0FE
:1054700075C40E94C6070E9423060E94C6070E94A8
:10548000230688E190E00E948F070E9423060E9475
:10549000C6070E9423060E94A5070E94230688E5EE
:1054A00090E00E943E040E94EC038BE90E94DC0520
:1054B0008FEF9FEFACE281509040A040E1F700C039
:1054C0000000C0E08C2F0E94C3058FEF9FEFA8E083
:1054D00081509040A040E1F700C00000CE5FC8338B
:1054E00089F783E80E94F5058FEF9FEFA9E58150CA
:1054F0009040A040E1F700C000000E94A5070E9474
:1055000023060E94C6070E94B0080E94A5070E94B9
:10551000230688E190E00E948F070E9423068BE912
:105520000E94DC058FEF9FEFACE281509040A040DD
:10553000E1F700C00000C0E08C2F0E94C3058FEF90
:105540009FEFA8E081509040A040E1F700C000002C
:10555000CE5FC83389F783E80E94F5058FEF9FEF90
:10556000A9E581509040A040E1F700C000000E94F2
:10557000C6070E94230687E190E00E948F078EEB0A
:1055800064EB0E94C9030E94EC030E9423060E9460
:10559000A5070E94B0080E94A5070E9423060E944A
:1055A00088040E94C6070E9423060E948C0686E992
:1055B00066E90E94C9038FEF9FE3A2E0815090400B
:1055C000A040E1F700C000000E94EC030E94230607
:1055D0008EEB64EB0E94C90381E790E00E948F0785
:1055E0000E94EC038FEF9FEFACE281509040A0400F
:1055F000E1F700C000008EEB64EB0E94C90388E570
:1056000090E00E943E048EEB64EB0E94C9030E946E
:10561000EC038FEF9FE7A6E181509040A040E1F7B7
:1056200000C0000086EB64EB0E94C90383E590E0B4
:105630000E949A070E94EC038FEF9FE7A6E181503A
:105640009040A040E1F700C000008BE90E94DC051B
:105650008FEF9FEFACE281509040A040E1F700C097
:105660000000C0E08C2F0E94C3058FEF9FEFA8E0E1
:1056700081509040A040E1F700C00000CE5FC833E9
:1056800089F783E80E94F5058FEF9FEFA9E5815028
:105690009040A040E1F700C0000088E190E00E9447
:1056A0008F070E94C6070E9423060E94EC038FEF1B
:1056B0009FE7A6E181509040A040E1F700C00000C4
:1056C00086E966E90E94C90387E290E00E948F079D
:1056D0000E94230683E090E00E948F070E94A507A6
:1056E0000E94B00888E190E00E948F070E94C607E0
:1056F0000E9423068BE90E94DC058FEF9FEFACE24E
:1057000081509040A040E1F700C00000C0E08C2F25
:105710000E94C3058FEF9FEFA8E081509040A0400A
:10572000E1F700C00000CE5FC83389F783E80E942C
:10573000F5058FEF9FEFA9E581509040A040E1F77C
:1057400000C0000088E190E00E948F070E94C60719
:105750000E9423060E94EC0388E190E00E948F07DC
:105760000E94C6070E9423060E94B0080E94F60607
:1057700086E966E90E94C9038FEF9FE3A2E08150AA
:105780009040A040E1F700C000000E94EC030E949E
:10579000230688E090E00E948F070E94A50787E813
:1057A0000E94DC058FEF9FEFACE281509040A0405B
:1057B000E1F700C0000080E00E94F5058FEF9FEF49
:1057C000ACE281509040A040E1F700C00000C0E092
:1057D0008C2F0E94C3058FEF9FEFACE28150904069
:1057E000A040E1F700C00000CB5FCD3289F78FEF1A
:1057F0009FEFACE281509040A040E1F700C0000074
:1058000082E70E94F5050E94F60686E966E90E9495
:10581000C9038FEF9FE3A2E081509040A040E1F7E1
:1058200000C000000E94EC030E94F60686E966E9CB
:105830000E94C9038FEF9FE3A2E081509040A040F7
:10584000E1F700C000000E94EC030E9423060E94C2
:10585000A5070E9423060E9488048FE56AE50E943E
:10586000C9030E94EC030E9423060E94C6070E94FF
:1058700023060E94A5070E9423060E94B0080E94EA
:10588000C6070E9423060E94A5070E94230687E8F8
:105890000E94DC058FEF9FEFACE281509040A0406A
:1058A000E1F700C0000080E00E94F5058FEF9FEF58
:1058B000ACE281509040A040E1F700C00000C0E0A1
:1058C0008C2F0E94C3058FEF9FEFACE28150904078
:1058D000A040E1F700C00000CB5FCD3289F78FEF29
:1058E0009FEFACE281509040A040E1F700C0000083
:1058F00082E70E94F5050E94A5070E9423060E94E8
:1059000088040E9423060E94A5070E94B0080E94F6
:10591000C6070E94230687E80E94DC058FEF9FEFF1
:10592000ACE281509040A040E1F700C0000080E070
:105930000E94F5058FEF9FEFACE281509040A040B0
:10594000E1F700C00000C0E08C2F0E94C3058FEF7C
:105950009FEFACE281509040A040E1F700C0000012
:10596000CB5FCD3289F78FEF9FEFACE28150904053
:10597000A040E1F700C0000082E70E94F5050E9408
:10598000A5070E9423060E94C6070E94B0080E9435
:10599000C6070E94230687E80E94DC058FEF9FEF71
:1059A000ACE281509040A040E1F700C0000080E0F0
:1059B0000E94F5058FEF9FEFACE281509040A04030
:1059C000E1F700C00000C0E08C2F0E94C3058FEFFC
:1059D0009FEFACE281509040A040E1F700C0000092
:1059E000CB5FCD3289F78FEF9FEFACE281509040D3
:1059F000A040E1F700C0000082E70E94F5050E9488
:105A0000A5070E9423060E94C6070E94A5070E94C0
:105A100023060E9488048FE56AE50E94C9030E945C
:105A2000EC030E94230688E590E00E943E048EEB82
:105A30006CE80E94C9030E94EC0387E80E94DC0521
:105A40008FEF9FEFACE281509040A040E1F700C0A3
:105A5000000080E00E94F5058FEF9FEFACE28150DF
:105A60009040A040E1F700C00000C0E08C2F0E94F1
:105A7000C3058FEF9FEFACE281509040A040E1F76B
:105A800000C00000CB5FCD3289F78FEF9FEFACE213
:105A900081509040A040E1F700C0000082E70E94E2
:105AA000F5050E94C6070E9423060E94A5070E94D2
:105AB00023060E948C0686E966E90E94C9038FEFDF
:105AC0009FE3A2E081509040A040E1F700C00000B9
:105AD0000E94EC030E9423068EEB64EB0E94C90334
